{
  "_format": "hh-sol-artifact-1",
  "contractName": "Domains",
  "sourceName": "contracts/Domains.sol",
  "abi": [
    {
      "inputs": [],
      "stateMutability": "payable",
      "type": "constructor"
    },
    {
      "inputs": [],
      "name": "AlreadyRegistered",
      "type": "error"
    },
    {
      "inputs": [],
      "name": "Unauthorized",
      "type": "error"
    },
    {
      "anonymous": false,
      "inputs": [
        {
          "indexed": true,
          "internalType": "address",
          "name": "owner",
          "type": "address"
        },
        {
          "indexed": true,
          "internalType": "address",
          "name": "approved",
          "type": "address"
        },
        {
          "indexed": true,
          "internalType": "uint256",
          "name": "tokenId",
          "type": "uint256"
        }
      ],
      "name": "Approval",
      "type": "event"
    },
    {
      "anonymous": false,
      "inputs": [
        {
          "indexed": true,
          "internalType": "address",
          "name": "owner",
          "type": "address"
        },
        {
          "indexed": true,
          "internalType": "address",
          "name": "operator",
          "type": "address"
        },
        {
          "indexed": false,
          "internalType": "bool",
          "name": "approved",
          "type": "bool"
        }
      ],
      "name": "ApprovalForAll",
      "type": "event"
    },
    {
      "anonymous": false,
      "inputs": [
        {
          "indexed": true,
          "internalType": "address",
          "name": "from",
          "type": "address"
        },
        {
          "indexed": true,
          "internalType": "address",
          "name": "to",
          "type": "address"
        },
        {
          "indexed": true,
          "internalType": "uint256",
          "name": "tokenId",
          "type": "uint256"
        }
      ],
      "name": "Transfer",
      "type": "event"
    },
    {
      "inputs": [
        {
          "internalType": "address",
          "name": "to",
          "type": "address"
        },
        {
          "internalType": "uint256",
          "name": "tokenId",
          "type": "uint256"
        }
      ],
      "name": "approve",
      "outputs": [],
      "stateMutability": "nonpayable",
      "type": "function"
    },
    {
      "inputs": [
        {
          "internalType": "address",
          "name": "owner",
          "type": "address"
        }
      ],
      "name": "balanceOf",
      "outputs": [
        {
          "internalType": "uint256",
          "name": "",
          "type": "uint256"
        }
      ],
      "stateMutability": "view",
      "type": "function"
    },
    {
      "inputs": [
        {
          "internalType": "string",
          "name": "_name",
          "type": "string"
        }
      ],
      "name": "getAddress",
      "outputs": [
        {
          "internalType": "address",
          "name": "",
          "type": "address"
        }
      ],
      "stateMutability": "view",
      "type": "function"
    },
    {
      "inputs": [],
      "name": "getAllNames",
      "outputs": [
        {
          "internalType": "string[]",
          "name": "",
          "type": "string[]"
        }
      ],
      "stateMutability": "view",
      "type": "function"
    },
    {
      "inputs": [
        {
          "internalType": "uint256",
          "name": "tokenId",
          "type": "uint256"
        }
      ],
      "name": "getApproved",
      "outputs": [
        {
          "internalType": "address",
          "name": "",
          "type": "address"
        }
      ],
      "stateMutability": "view",
      "type": "function"
    },
    {
      "inputs": [
        {
          "internalType": "string",
          "name": "_name",
          "type": "string"
        }
      ],
      "name": "getRecord",
      "outputs": [
        {
          "internalType": "string",
          "name": "",
          "type": "string"
        }
      ],
      "stateMutability": "view",
      "type": "function"
    },
    {
      "inputs": [
        {
          "internalType": "address",
          "name": "owner",
          "type": "address"
        },
        {
          "internalType": "address",
          "name": "operator",
          "type": "address"
        }
      ],
      "name": "isApprovedForAll",
      "outputs": [
        {
          "internalType": "bool",
          "name": "",
          "type": "bool"
        }
      ],
      "stateMutability": "view",
      "type": "function"
    },
    {
      "inputs": [],
      "name": "name",
      "outputs": [
        {
          "internalType": "string",
          "name": "",
          "type": "string"
        }
      ],
      "stateMutability": "view",
      "type": "function"
    },
    {
      "inputs": [],
      "name": "owner",
      "outputs": [
        {
          "internalType": "address payable",
          "name": "",
          "type": "address"
        }
      ],
      "stateMutability": "view",
      "type": "function"
    },
    {
      "inputs": [
        {
          "internalType": "uint256",
          "name": "tokenId",
          "type": "uint256"
        }
      ],
      "name": "ownerOf",
      "outputs": [
        {
          "internalType": "address",
          "name": "",
          "type": "address"
        }
      ],
      "stateMutability": "view",
      "type": "function"
    },
    {
      "inputs": [
        {
          "internalType": "string",
          "name": "_name",
          "type": "string"
        }
      ],
      "name": "price",
      "outputs": [
        {
          "internalType": "uint256",
          "name": "",
          "type": "uint256"
        }
      ],
      "stateMutability": "pure",
      "type": "function"
    },
    {
      "inputs": [
        {
          "internalType": "string",
          "name": "_name",
          "type": "string"
        }
      ],
      "name": "register",
      "outputs": [],
      "stateMutability": "payable",
      "type": "function"
    },
    {
      "inputs": [
        {
          "internalType": "address",
          "name": "from",
          "type": "address"
        },
        {
          "internalType": "address",
          "name": "to",
          "type": "address"
        },
        {
          "internalType": "uint256",
          "name": "tokenId",
          "type": "uint256"
        }
      ],
      "name": "safeTransferFrom",
      "outputs": [],
      "stateMutability": "nonpayable",
      "type": "function"
    },
    {
      "inputs": [
        {
          "internalType": "address",
          "name": "from",
          "type": "address"
        },
        {
          "internalType": "address",
          "name": "to",
          "type": "address"
        },
        {
          "internalType": "uint256",
          "name": "tokenId",
          "type": "uint256"
        },
        {
          "internalType": "bytes",
          "name": "_data",
          "type": "bytes"
        }
      ],
      "name": "safeTransferFrom",
      "outputs": [],
      "stateMutability": "nonpayable",
      "type": "function"
    },
    {
      "inputs": [
        {
          "internalType": "address",
          "name": "operator",
          "type": "address"
        },
        {
          "internalType": "bool",
          "name": "approved",
          "type": "bool"
        }
      ],
      "name": "setApprovalForAll",
      "outputs": [],
      "stateMutability": "nonpayable",
      "type": "function"
    },
    {
      "inputs": [
        {
          "internalType": "string",
          "name": "_name",
          "type": "string"
        },
        {
          "internalType": "string",
          "name": "_record",
          "type": "string"
        }
      ],
      "name": "setRecord",
      "outputs": [],
      "stateMutability": "nonpayable",
      "type": "function"
    },
    {
      "inputs": [
        {
          "internalType": "bytes4",
          "name": "interfaceId",
          "type": "bytes4"
        }
      ],
      "name": "supportsInterface",
      "outputs": [
        {
          "internalType": "bool",
          "name": "",
          "type": "bool"
        }
      ],
      "stateMutability": "view",
      "type": "function"
    },
    {
      "inputs": [],
      "name": "symbol",
      "outputs": [
        {
          "internalType": "string",
          "name": "",
          "type": "string"
        }
      ],
      "stateMutability": "view",
      "type": "function"
    },
    {
      "inputs": [],
      "name": "tld",
      "outputs": [
        {
          "internalType": "string",
          "name": "",
          "type": "string"
        }
      ],
      "stateMutability": "view",
      "type": "function"
    },
    {
      "inputs": [
        {
          "internalType": "uint256",
          "name": "tokenId",
          "type": "uint256"
        }
      ],
      "name": "tokenURI",
      "outputs": [
        {
          "internalType": "string",
          "name": "",
          "type": "string"
        }
      ],
      "stateMutability": "view",
      "type": "function"
    },
    {
      "inputs": [
        {
          "internalType": "address",
          "name": "from",
          "type": "address"
        },
        {
          "internalType": "address",
          "name": "to",
          "type": "address"
        },
        {
          "internalType": "uint256",
          "name": "tokenId",
          "type": "uint256"
        }
      ],
      "name": "transferFrom",
      "outputs": [],
      "stateMutability": "nonpayable",
      "type": "function"
    },
    {
      "inputs": [],
      "name": "withdraw",
      "outputs": [],
      "stateMutability": "nonpayable",
      "type": "function"
    }
  ],
  "bytecode": "0x60806040526040518060400160405280600781526020017f6c6561726e6572000000000000000000000000000000000000000000000000008152506009908051906020019062000051929190620001bc565b50604051806108a0016040528061086b815260200162004b3261086b9139600a908051906020019062000086929190620001bc565b506040518060400160405280600d81526020017f3c2f746578743e3c2f7376673e00000000000000000000000000000000000000815250600b9080519060200190620000d4929190620001bc565b506040518060400160405280601481526020017f4c6561726e6572204e616d6520536572766963650000000000000000000000008152506040518060400160405280600381526020017f4c4e530000000000000000000000000000000000000000000000000000000000815250816000908051906020019062000159929190620001bc565b50806001908051906020019062000172929190620001bc565b50505033600860006101000a81548173ffffffffffffffffffffffffffffffffffffffff021916908373ffffffffffffffffffffffffffffffffffffffff160217905550620002d1565b828054620001ca906200029b565b90600052602060002090601f016020900481019282620001ee57600085556200023a565b82601f106200020957805160ff19168380011785556200023a565b828001600101855582156200023a579182015b82811115620002395782518255916020019190600101906200021c565b5b5090506200024991906200024d565b5090565b5b80821115620002685760008160009055506001016200024e565b5090565b7f4e487b7100000000000000000000000000000000000000000000000000000000600052602260045260246000fd5b60006002820490506001821680620002b457607f821691505b60208210811415620002cb57620002ca6200026c565b5b50919050565b61485180620002e16000396000f3fe6080604052600436106101355760003560e01c80638da5cb5b116100ab578063c1880a981161006f578063c1880a9814610438578063c87b56dd14610461578063e985e9c51461049e578063f2c298be146104db578063fb825e5f146104f7578063fe2c61981461052257610135565b80638da5cb5b1461035357806395d89b411461037e578063a22cb465146103a9578063b88d4fde146103d2578063bf40fac1146103fb57610135565b806323b872dd116100fd57806323b872dd146102455780632d5514321461026e5780633ccfd60b1461029957806342842e0e146102b05780636352211e146102d957806370a082311461031657610135565b806301ffc9a71461013a57806306fdde0314610177578063081812fc146101a2578063095ea7b3146101df57806311dd884514610208575b600080fd5b34801561014657600080fd5b50610161600480360381019061015c9190612cb4565b61055f565b60405161016e9190612cfc565b60405180910390f35b34801561018357600080fd5b5061018c610641565b6040516101999190612db0565b60405180910390f35b3480156101ae57600080fd5b506101c960048036038101906101c49190612e08565b6106d3565b6040516101d69190612e76565b60405180910390f35b3480156101eb57600080fd5b5061020660048036038101906102019190612ebd565b610758565b005b34801561021457600080fd5b5061022f600480360381019061022a9190612f62565b610870565b60405161023c9190612db0565b60405180910390f35b34801561025157600080fd5b5061026c60048036038101906102679190612faf565b610923565b005b34801561027a57600080fd5b50610283610983565b6040516102909190612db0565b60405180910390f35b3480156102a557600080fd5b506102ae610a11565b005b3480156102bc57600080fd5b506102d760048036038101906102d29190612faf565b610b56565b005b3480156102e557600080fd5b5061030060048036038101906102fb9190612e08565b610b76565b60405161030d9190612e76565b60405180910390f35b34801561032257600080fd5b5061033d60048036038101906103389190613002565b610c28565b60405161034a919061303e565b60405180910390f35b34801561035f57600080fd5b50610368610ce0565b604051610375919061307a565b60405180910390f35b34801561038a57600080fd5b50610393610d06565b6040516103a09190612db0565b60405180910390f35b3480156103b557600080fd5b506103d060048036038101906103cb91906130c1565b610d98565b005b3480156103de57600080fd5b506103f960048036038101906103f49190613231565b610dae565b005b34801561040757600080fd5b50610422600480360381019061041d9190612f62565b610e10565b60405161042f9190612e76565b60405180910390f35b34801561044457600080fd5b5061045f600480360381019061045a91906132b4565b610e5b565b005b34801561046d57600080fd5b5061048860048036038101906104839190612e08565b610f36565b6040516104959190612db0565b60405180910390f35b3480156104aa57600080fd5b506104c560048036038101906104c09190613335565b611088565b6040516104d29190612cfc565b60405180910390f35b6104f560048036038101906104f09190612f62565b61111c565b005b34801561050357600080fd5b5061050c61154d565b6040516105199190613481565b60405180910390f35b34801561052e57600080fd5b5061054960048036038101906105449190612f62565b61172b565b604051610556919061303e565b60405180910390f35b60007f80ac58cd000000000000000000000000000000000000000000000000000000007bffffffffffffffffffffffffffffffffffffffffffffffffffffffff1916827bffffffffffffffffffffffffffffffffffffffffffffffffffffffff1916148061062a57507f5b5e139f000000000000000000000000000000000000000000000000000000007bffffffffffffffffffffffffffffffffffffffffffffffffffffffff1916827bffffffffffffffffffffffffffffffffffffffffffffffffffffffff1916145b8061063a5750610639826117cf565b5b9050919050565b606060008054610650906134d2565b80601f016020809104026020016040519081016040528092919081815260200182805461067c906134d2565b80156106c95780601f1061069e576101008083540402835291602001916106c9565b820191906000526020600020905b8154815290600101906020018083116106ac57829003601f168201915b5050505050905090565b60006106de82611839565b61071d576040517f08c379a000000000000000000000000000000000000000000000000000000000815260040161071490613576565b60405180910390fd5b6004600083815260200190815260200160002060009054906101000a900473ffffffffffffffffffffffffffffffffffffffff169050919050565b600061076382610b76565b90508073ffffffffffffffffffffffffffffffffffffffff168373ffffffffffffffffffffffffffffffffffffffff1614156107d4576040517f08c379a00000000000000000000000000000000000000000000000000000000081526004016107cb90613608565b60405180910390fd5b8073ffffffffffffffffffffffffffffffffffffffff166107f36118a5565b73ffffffffffffffffffffffffffffffffffffffff16148061082257506108218161081c6118a5565b611088565b5b610861576040517f08c379a00000000000000000000000000000000000000000000000000000000081526004016108589061369a565b60405180910390fd5b61086b83836118ad565b505050565b6060600e83836040516108849291906136ea565b9081526020016040518091039020805461089d906134d2565b80601f01602080910402602001604051908101604052809291908181526020018280546108c9906134d2565b80156109165780601f106108eb57610100808354040283529160200191610916565b820191906000526020600020905b8154815290600101906020018083116108f957829003601f168201915b5050505050905092915050565b61093461092e6118a5565b82611966565b610973576040517f08c379a000000000000000000000000000000000000000000000000000000000815260040161096a90613775565b60405180910390fd5b61097e838383611a44565b505050565b60098054610990906134d2565b80601f01602080910402602001604051908101604052809291908181526020018280546109bc906134d2565b8015610a095780601f106109de57610100808354040283529160200191610a09565b820191906000526020600020905b8154815290600101906020018083116109ec57829003601f168201915b505050505081565b600860009054906101000a900473ffffffffffffffffffffffffffffffffffffffff1673ffffffffffffffffffffffffffffffffffffffff163373ffffffffffffffffffffffffffffffffffffffff1614610aa1576040517f08c379a0000000000000000000000000000000000000000000000000000000008152600401610a98906137e1565b60405180910390fd5b600047905060003373ffffffffffffffffffffffffffffffffffffffff1682604051610acc90613832565b60006040518083038185875af1925050503d8060008114610b09576040519150601f19603f3d011682016040523d82523d6000602084013e610b0e565b606091505b5050905080610b52576040517f08c379a0000000000000000000000000000000000000000000000000000000008152600401610b4990613893565b60405180910390fd5b5050565b610b7183838360405180602001604052806000815250610dae565b505050565b6000806002600084815260200190815260200160002060009054906101000a900473ffffffffffffffffffffffffffffffffffffffff169050600073ffffffffffffffffffffffffffffffffffffffff168173ffffffffffffffffffffffffffffffffffffffff161415610c1f576040517f08c379a0000000000000000000000000000000000000000000000000000000008152600401610c1690613925565b60405180910390fd5b80915050919050565b60008073ffffffffffffffffffffffffffffffffffffffff168273ffffffffffffffffffffffffffffffffffffffff161415610c99576040517f08c379a0000000000000000000000000000000000000000000000000000000008152600401610c90906139b7565b60405180910390fd5b600360008373ffffffffffffffffffffffffffffffffffffffff1673ffffffffffffffffffffffffffffffffffffffff168152602001908152602001600020549050919050565b600860009054906101000a900473ffffffffffffffffffffffffffffffffffffffff1681565b606060018054610d15906134d2565b80601f0160208091040260200160405190810160405280929190818152602001828054610d41906134d2565b8015610d8e5780601f10610d6357610100808354040283529160200191610d8e565b820191906000526020600020905b815481529060010190602001808311610d7157829003601f168201915b5050505050905090565b610daa610da36118a5565b8383611cab565b5050565b610dbf610db96118a5565b83611966565b610dfe576040517f08c379a0000000000000000000000000000000000000000000000000000000008152600401610df590613775565b60405180910390fd5b610e0a84848484611e18565b50505050565b6000600d8383604051610e249291906136ea565b908152602001604051809103902060009054906101000a900473ffffffffffffffffffffffffffffffffffffffff16905092915050565b600d8484604051610e6d9291906136ea565b908152602001604051809103902060009054906101000a900473ffffffffffffffffffffffffffffffffffffffff1673ffffffffffffffffffffffffffffffffffffffff163373ffffffffffffffffffffffffffffffffffffffff1614610f00576040517f82b4290000000000000000000000000000000000000000000000000000000000815260040160405180910390fd5b8181600e8686604051610f149291906136ea565b90815260200160405180910390209190610f2f929190612b1f565b5050505050565b6060610f4182611839565b610f80576040517f08c379a0000000000000000000000000000000000000000000000000000000008152600401610f7790613a49565b60405180910390fd5b6000600660008481526020019081526020016000208054610fa0906134d2565b80601f0160208091040260200160405190810160405280929190818152602001828054610fcc906134d2565b80156110195780601f10610fee57610100808354040283529160200191611019565b820191906000526020600020905b815481529060010190602001808311610ffc57829003601f168201915b50505050509050600061102a611e74565b9050600081511415611040578192505050611083565b60008251111561107557808260405160200161105d929190613a9a565b60405160208183030381529060405292505050611083565b61107e84611e8b565b925050505b919050565b6000600560008473ffffffffffffffffffffffffffffffffffffffff1673ffffffffffffffffffffffffffffffffffffffff16815260200190815260200160002060008373ffffffffffffffffffffffffffffffffffffffff1673ffffffffffffffffffffffffffffffffffffffff16815260200190815260200160002060009054906101000a900460ff16905092915050565b600073ffffffffffffffffffffffffffffffffffffffff16600d83836040516111469291906136ea565b908152602001604051809103902060009054906101000a900473ffffffffffffffffffffffffffffffffffffffff1673ffffffffffffffffffffffffffffffffffffffff16146111c2576040517f3a81d6fc00000000000000000000000000000000000000000000000000000000815260040160405180910390fd5b60006111ce838361172b565b905080341015611213576040517f08c379a000000000000000000000000000000000000000000000000000000000815260040161120a90613b0a565b60405180910390fd5b60008383600960405160200161122b93929190613c0a565b60405160208183030381529060405290506000600a82600b60405160200161125593929190613c3b565b604051602081830303815290604052905060006112726007611f32565b905060006112c387878080601f016020809104026020016040519081016040528093929190818152602001838380828437600081840152601f19601f82011690508083019250505050505050611f40565b905060006112d0826120f5565b90506113c46040518060600160405280603181526020016147726031913989898080601f016020809104026020016040519081016040528093929190818152602001838380828437600081840152601f19601f8201169050808301925050505050505060098054611340906134d2565b80601f016020809104026020016040519081016040528092919081815260200182805461136c906134d2565b80156113b95780601f1061138e576101008083540402835291602001916113b9565b820191906000526020600020905b81548152906001019060200180831161139c57829003601f168201915b505050505086612256565b60006113fa866113d3876122f8565b846040516020016113e693929190613de8565b6040516020818303038152906040526122f8565b905060008160405160200161140f9190613e91565b604051602081830303815290604052905061144160405180606001604052806039815260200161473960399139612490565b6114806040518060400160405280600e81526020017f46696e616c20746f6b656e55524900000000000000000000000000000000000081525082612529565b6114a16040518060600160405280603981526020016147a360399139612490565b6114ab33866125c5565b6114b585826125e3565b33600d8b8b6040516114c89291906136ea565b908152602001604051809103902060006101000a81548173ffffffffffffffffffffffffffffffffffffffff021916908373ffffffffffffffffffffffffffffffffffffffff1602179055508989600c60008881526020019081526020016000209190611536929190612b1f565b506115416007612657565b50505050505050505050565b606061158d6040518060400160405280601f81526020017f47657474696e6720616c6c206e616d65732066726f6d20636f6e747261637400815250612490565b60006115996007611f32565b67ffffffffffffffff8111156115b2576115b1613106565b5b6040519080825280602002602001820160405280156115e557816020015b60608152602001906001900390816115d05790505b50905060005b6115f56007611f32565b81101561172357600c6000828152602001908152602001600020805461161a906134d2565b80601f0160208091040260200160405190810160405280929190818152602001828054611646906134d2565b80156116935780601f1061166857610100808354040283529160200191611693565b820191906000526020600020905b81548152906001019060200180831161167657829003601f168201915b50505050508282815181106116ab576116aa613eb3565b5b60200260200101819052506117106040518060400160405280601781526020017f4e616d6520666f7220746f6b656e2025642069732025730000000000000000008152508284848151811061170357611702613eb3565b5b602002602001015161266d565b808061171b90613f11565b9150506115eb565b508091505090565b60008061177b84848080601f016020809104026020016040519081016040528093929190818152602001838380828437600081840152601f19601f82011690508083019250505050505050611f40565b90506000811161178a57600080fd5b600381116117a3576706f05b59d3b200009150506117c9565b600681116117bc576702c68af0bb1400009150506117c9565b67016345785d8a00009150505b92915050565b60007f01ffc9a7000000000000000000000000000000000000000000000000000000007bffffffffffffffffffffffffffffffffffffffffffffffffffffffff1916827bffffffffffffffffffffffffffffffffffffffffffffffffffffffff1916149050919050565b60008073ffffffffffffffffffffffffffffffffffffffff166002600084815260200190815260200160002060009054906101000a900473ffffffffffffffffffffffffffffffffffffffff1673ffffffffffffffffffffffffffffffffffffffff1614159050919050565b600033905090565b816004600083815260200190815260200160002060006101000a81548173ffffffffffffffffffffffffffffffffffffffff021916908373ffffffffffffffffffffffffffffffffffffffff160217905550808273ffffffffffffffffffffffffffffffffffffffff1661192083610b76565b73ffffffffffffffffffffffffffffffffffffffff167f8c5be1e5ebec7d5bd14f71427d1e84f3dd0314c0f7b2291e5b200ac8c7c3b92560405160405180910390a45050565b600061197182611839565b6119b0576040517f08c379a00000000000000000000000000000000000000000000000000000000081526004016119a790613fcc565b60405180910390fd5b60006119bb83610b76565b90508073ffffffffffffffffffffffffffffffffffffffff168473ffffffffffffffffffffffffffffffffffffffff161480611a2a57508373ffffffffffffffffffffffffffffffffffffffff16611a12846106d3565b73ffffffffffffffffffffffffffffffffffffffff16145b80611a3b5750611a3a8185611088565b5b91505092915050565b8273ffffffffffffffffffffffffffffffffffffffff16611a6482610b76565b73ffffffffffffffffffffffffffffffffffffffff1614611aba576040517f08c379a0000000000000000000000000000000000000000000000000000000008152600401611ab19061405e565b60405180910390fd5b600073ffffffffffffffffffffffffffffffffffffffff168273ffffffffffffffffffffffffffffffffffffffff161415611b2a576040517f08c379a0000000000000000000000000000000000000000000000000000000008152600401611b21906140f0565b60405180910390fd5b611b3583838361270c565b611b406000826118ad565b6001600360008573ffffffffffffffffffffffffffffffffffffffff1673ffffffffffffffffffffffffffffffffffffffff1681526020019081526020016000206000828254611b909190614110565b925050819055506001600360008473ffffffffffffffffffffffffffffffffffffffff1673ffffffffffffffffffffffffffffffffffffffff1681526020019081526020016000206000828254611be79190614144565b92505081905550816002600083815260200190815260200160002060006101000a81548173ffffffffffffffffffffffffffffffffffffffff021916908373ffffffffffffffffffffffffffffffffffffffff160217905550808273ffffffffffffffffffffffffffffffffffffffff168473ffffffffffffffffffffffffffffffffffffffff167fddf252ad1be2c89b69c2b068fc378daa952ba7f163c4a11628f55a4df523b3ef60405160405180910390a4611ca6838383612711565b505050565b8173ffffffffffffffffffffffffffffffffffffffff168373ffffffffffffffffffffffffffffffffffffffff161415611d1a576040517f08c379a0000000000000000000000000000000000000000000000000000000008152600401611d11906141e6565b60405180910390fd5b80600560008573ffffffffffffffffffffffffffffffffffffffff1673ffffffffffffffffffffffffffffffffffffffff16815260200190815260200160002060008473ffffffffffffffffffffffffffffffffffffffff1673ffffffffffffffffffffffffffffffffffffffff16815260200190815260200160002060006101000a81548160ff0219169083151502179055508173ffffffffffffffffffffffffffffffffffffffff168373ffffffffffffffffffffffffffffffffffffffff167f17307eab39ab6107e8899845ad3d59bd9653f200f220920489ca2b5937696c3183604051611e0b9190612cfc565b60405180910390a3505050565b611e23848484611a44565b611e2f84848484612716565b611e6e576040517f08c379a0000000000000000000000000000000000000000000000000000000008152600401611e6590614278565b60405180910390fd5b50505050565b606060405180602001604052806000815250905090565b6060611e9682611839565b611ed5576040517f08c379a0000000000000000000000000000000000000000000000000000000008152600401611ecc9061430a565b60405180910390fd5b6000611edf611e74565b90506000815111611eff5760405180602001604052806000815250611f2a565b80611f09846120f5565b604051602001611f1a929190613a9a565b6040516020818303038152906040525b915050919050565b600081600001549050919050565b60008060008084519050600092505b808210156120ea576000858381518110611f6c57611f6b613eb3565b5b602001015160f81c60f81b9050608060f81b817effffffffffffffffffffffffffffffffffffffffffffffffffffffffffffff19161015611fbb57600183611fb49190614144565b92506120d6565b60e060f81b817effffffffffffffffffffffffffffffffffffffffffffffffffffffffffffff19161015611ffd57600283611ff69190614144565b92506120d5565b60f060f81b817effffffffffffffffffffffffffffffffffffffffffffffffffffffffffffff1916101561203f576003836120389190614144565b92506120d4565b60f8801b817effffffffffffffffffffffffffffffffffffffffffffffffffffffffffffff19161015612080576004836120799190614144565b92506120d3565b60fc60f81b817effffffffffffffffffffffffffffffffffffffffffffffffffffffffffffff191610156120c2576005836120bb9190614144565b92506120d2565b6006836120cf9190614144565b92505b5b5b5b5b5082806120e290613f11565b935050611f4f565b829350505050919050565b6060600082141561213d576040518060400160405280600181526020017f30000000000000000000000000000000000000000000000000000000000000008152509050612251565b600082905060005b6000821461216f57808061215890613f11565b915050600a826121689190614359565b9150612145565b60008167ffffffffffffffff81111561218b5761218a613106565b5b6040519080825280601f01601f1916602001820160405280156121bd5781602001600182028036833780820191505090505b5090505b6000851461224a576001826121d69190614110565b9150600a856121e5919061438a565b60306121f19190614144565b60f81b81838151811061220757612206613eb3565b5b60200101907effffffffffffffffffffffffffffffffffffffffffffffffffffffffffffff1916908160001a905350600a856122439190614359565b94506121c1565b8093505050505b919050565b6122f28484848460405160240161227094939291906143bb565b6040516020818303038152906040527f9fd009f5000000000000000000000000000000000000000000000000000000007bffffffffffffffffffffffffffffffffffffffffffffffffffffffff19166020820180517bffffffffffffffffffffffffffffffffffffffffffffffffffffffff838183161783525050505061289e565b50505050565b60606000825190506000811415612321576040518060200160405280600081525091505061248b565b600060036002836123329190614144565b61233c9190614359565b60046123489190614415565b905060006020826123599190614144565b67ffffffffffffffff81111561237257612371613106565b5b6040519080825280601f01601f1916602001820160405280156123a45781602001600182028036833780820191505090505b50905060006040518060600160405280604081526020016147dc604091399050600181016020830160005b868110156124485760038101905062ffffff818a015116603f8160121c168401518060081b905060ff603f83600c1c1686015116810190508060081b905060ff603f8360061c1686015116810190508060081b905060ff603f831686015116810190508060e01b905080845260048401935050506123cf565b50600386066001811461246257600281146124725761247d565b613d3d60f01b600283035261247d565b603d60f81b60018303525b508484525050819450505050505b919050565b612526816040516024016124a49190612db0565b6040516020818303038152906040527f41304fac000000000000000000000000000000000000000000000000000000007bffffffffffffffffffffffffffffffffffffffffffffffffffffffff19166020820180517bffffffffffffffffffffffffffffffffffffffffffffffffffffffff838183161783525050505061289e565b50565b6125c1828260405160240161253f92919061446f565b6040516020818303038152906040527f4b5c4277000000000000000000000000000000000000000000000000000000007bffffffffffffffffffffffffffffffffffffffffffffffffffffffff19166020820180517bffffffffffffffffffffffffffffffffffffffffffffffffffffffff838183161783525050505061289e565b5050565b6125df8282604051806020016040528060008152506128c7565b5050565b6125ec82611839565b61262b576040517f08c379a000000000000000000000000000000000000000000000000000000000815260040161262290614518565b60405180910390fd5b80600660008481526020019081526020016000209080519060200190612652929190612ba5565b505050565b6001816000016000828254019250508190555050565b61270783838360405160240161268593929190614538565b6040516020818303038152906040527fa3f5c739000000000000000000000000000000000000000000000000000000007bffffffffffffffffffffffffffffffffffffffffffffffffffffffff19166020820180517bffffffffffffffffffffffffffffffffffffffffffffffffffffffff838183161783525050505061289e565b505050565b505050565b505050565b60006127378473ffffffffffffffffffffffffffffffffffffffff16612922565b15612891578373ffffffffffffffffffffffffffffffffffffffff1663150b7a026127606118a5565b8786866040518563ffffffff1660e01b815260040161278294939291906145d2565b6020604051808303816000875af19250505080156127be57506040513d601f19601f820116820180604052508101906127bb9190614633565b60015b612841573d80600081146127ee576040519150601f19603f3d011682016040523d82523d6000602084013e6127f3565b606091505b50600081511415612839576040517f08c379a000000000000000000000000000000000000000000000000000000000815260040161283090614278565b60405180910390fd5b805181602001fd5b63150b7a0260e01b7bffffffffffffffffffffffffffffffffffffffffffffffffffffffff1916817bffffffffffffffffffffffffffffffffffffffffffffffffffffffff191614915050612896565b600190505b949350505050565b60008151905060006a636f6e736f6c652e6c6f679050602083016000808483855afa5050505050565b6128d18383612945565b6128de6000848484612716565b61291d576040517f08c379a000000000000000000000000000000000000000000000000000000000815260040161291490614278565b60405180910390fd5b505050565b6000808273ffffffffffffffffffffffffffffffffffffffff163b119050919050565b600073ffffffffffffffffffffffffffffffffffffffff168273ffffffffffffffffffffffffffffffffffffffff1614156129b5576040517f08c379a00000000000000000000000000000000000000000000000000000000081526004016129ac906146ac565b60405180910390fd5b6129be81611839565b156129fe576040517f08c379a00000000000000000000000000000000000000000000000000000000081526004016129f590614718565b60405180910390fd5b612a0a6000838361270c565b6001600360008473ffffffffffffffffffffffffffffffffffffffff1673ffffffffffffffffffffffffffffffffffffffff1681526020019081526020016000206000828254612a5a9190614144565b92505081905550816002600083815260200190815260200160002060006101000a81548173ffffffffffffffffffffffffffffffffffffffff021916908373ffffffffffffffffffffffffffffffffffffffff160217905550808273ffffffffffffffffffffffffffffffffffffffff16600073ffffffffffffffffffffffffffffffffffffffff167fddf252ad1be2c89b69c2b068fc378daa952ba7f163c4a11628f55a4df523b3ef60405160405180910390a4612b1b60008383612711565b5050565b828054612b2b906134d2565b90600052602060002090601f016020900481019282612b4d5760008555612b94565b82601f10612b6657803560ff1916838001178555612b94565b82800160010185558215612b94579182015b82811115612b93578235825591602001919060010190612b78565b5b509050612ba19190612c2b565b5090565b828054612bb1906134d2565b90600052602060002090601f016020900481019282612bd35760008555612c1a565b82601f10612bec57805160ff1916838001178555612c1a565b82800160010185558215612c1a579182015b82811115612c19578251825591602001919060010190612bfe565b5b509050612c279190612c2b565b5090565b5b80821115612c44576000816000905550600101612c2c565b5090565b6000604051905090565b600080fd5b600080fd5b60007fffffffff0000000000000000000000000000000000000000000000000000000082169050919050565b612c9181612c5c565b8114612c9c57600080fd5b50565b600081359050612cae81612c88565b92915050565b600060208284031215612cca57612cc9612c52565b5b6000612cd884828501612c9f565b91505092915050565b60008115159050919050565b612cf681612ce1565b82525050565b6000602082019050612d116000830184612ced565b92915050565b600081519050919050565b600082825260208201905092915050565b60005b83811015612d51578082015181840152602081019050612d36565b83811115612d60576000848401525b50505050565b6000601f19601f8301169050919050565b6000612d8282612d17565b612d8c8185612d22565b9350612d9c818560208601612d33565b612da581612d66565b840191505092915050565b60006020820190508181036000830152612dca8184612d77565b905092915050565b6000819050919050565b612de581612dd2565b8114612df057600080fd5b50565b600081359050612e0281612ddc565b92915050565b600060208284031215612e1e57612e1d612c52565b5b6000612e2c84828501612df3565b91505092915050565b600073ffffffffffffffffffffffffffffffffffffffff82169050919050565b6000612e6082612e35565b9050919050565b612e7081612e55565b82525050565b6000602082019050612e8b6000830184612e67565b92915050565b612e9a81612e55565b8114612ea557600080fd5b50565b600081359050612eb781612e91565b92915050565b60008060408385031215612ed457612ed3612c52565b5b6000612ee285828601612ea8565b9250506020612ef385828601612df3565b9150509250929050565b600080fd5b600080fd5b600080fd5b60008083601f840112612f2257612f21612efd565b5b8235905067ffffffffffffffff811115612f3f57612f3e612f02565b5b602083019150836001820283011115612f5b57612f5a612f07565b5b9250929050565b60008060208385031215612f7957612f78612c52565b5b600083013567ffffffffffffffff811115612f9757612f96612c57565b5b612fa385828601612f0c565b92509250509250929050565b600080600060608486031215612fc857612fc7612c52565b5b6000612fd686828701612ea8565b9350506020612fe786828701612ea8565b9250506040612ff886828701612df3565b9150509250925092565b60006020828403121561301857613017612c52565b5b600061302684828501612ea8565b91505092915050565b61303881612dd2565b82525050565b6000602082019050613053600083018461302f565b92915050565b600061306482612e35565b9050919050565b61307481613059565b82525050565b600060208201905061308f600083018461306b565b92915050565b61309e81612ce1565b81146130a957600080fd5b50565b6000813590506130bb81613095565b92915050565b600080604083850312156130d8576130d7612c52565b5b60006130e685828601612ea8565b92505060206130f7858286016130ac565b9150509250929050565b600080fd5b7f4e487b7100000000000000000000000000000000000000000000000000000000600052604160045260246000fd5b61313e82612d66565b810181811067ffffffffffffffff8211171561315d5761315c613106565b5b80604052505050565b6000613170612c48565b905061317c8282613135565b919050565b600067ffffffffffffffff82111561319c5761319b613106565b5b6131a582612d66565b9050602081019050919050565b82818337600083830152505050565b60006131d46131cf84613181565b613166565b9050828152602081018484840111156131f0576131ef613101565b5b6131fb8482856131b2565b509392505050565b600082601f83011261321857613217612efd565b5b81356132288482602086016131c1565b91505092915050565b6000806000806080858703121561324b5761324a612c52565b5b600061325987828801612ea8565b945050602061326a87828801612ea8565b935050604061327b87828801612df3565b925050606085013567ffffffffffffffff81111561329c5761329b612c57565b5b6132a887828801613203565b91505092959194509250565b600080600080604085870312156132ce576132cd612c52565b5b600085013567ffffffffffffffff8111156132ec576132eb612c57565b5b6132f887828801612f0c565b9450945050602085013567ffffffffffffffff81111561331b5761331a612c57565b5b61332787828801612f0c565b925092505092959194509250565b6000806040838503121561334c5761334b612c52565b5b600061335a85828601612ea8565b925050602061336b85828601612ea8565b9150509250929050565b600081519050919050565b600082825260208201905092915050565b6000819050602082019050919050565b600082825260208201905092915050565b60006133bd82612d17565b6133c781856133a1565b93506133d7818560208601612d33565b6133e081612d66565b840191505092915050565b60006133f783836133b2565b905092915050565b6000602082019050919050565b600061341782613375565b6134218185613380565b93508360208202850161343385613391565b8060005b8581101561346f578484038952815161345085826133eb565b945061345b836133ff565b925060208a01995050600181019050613437565b50829750879550505050505092915050565b6000602082019050818103600083015261349b818461340c565b905092915050565b7f4e487b7100000000000000000000000000000000000000000000000000000000600052602260045260246000fd5b600060028204905060018216806134ea57607f821691505b602082108114156134fe576134fd6134a3565b5b50919050565b7f4552433732313a20617070726f76656420717565727920666f72206e6f6e657860008201527f697374656e7420746f6b656e0000000000000000000000000000000000000000602082015250565b6000613560602c83612d22565b915061356b82613504565b604082019050919050565b6000602082019050818103600083015261358f81613553565b9050919050565b7f4552433732313a20617070726f76616c20746f2063757272656e74206f776e6560008201527f7200000000000000000000000000000000000000000000000000000000000000602082015250565b60006135f2602183612d22565b91506135fd82613596565b604082019050919050565b60006020820190508181036000830152613621816135e5565b9050919050565b7f4552433732313a20617070726f76652063616c6c6572206973206e6f74206f7760008201527f6e6572206e6f7220617070726f76656420666f7220616c6c0000000000000000602082015250565b6000613684603883612d22565b915061368f82613628565b604082019050919050565b600060208201905081810360008301526136b381613677565b9050919050565b600081905092915050565b60006136d183856136ba565b93506136de8385846131b2565b82840190509392505050565b60006136f78284866136c5565b91508190509392505050565b7f4552433732313a207472616e736665722063616c6c6572206973206e6f74206f60008201527f776e6572206e6f7220617070726f766564000000000000000000000000000000602082015250565b600061375f603183612d22565b915061376a82613703565b604082019050919050565b6000602082019050818103600083015261378e81613752565b9050919050565b7f796f7520617265206e6f74206f776e65722e0000000000000000000000000000600082015250565b60006137cb601283612d22565b91506137d682613795565b602082019050919050565b600060208201905081810360008301526137fa816137be565b9050919050565b600081905092915050565b50565b600061381c600083613801565b91506138278261380c565b600082019050919050565b600061383d8261380f565b9150819050919050565b7f4661696c656420746f207769746864726177204d617469630000000000000000600082015250565b600061387d601883612d22565b915061388882613847565b602082019050919050565b600060208201905081810360008301526138ac81613870565b9050919050565b7f4552433732313a206f776e657220717565727920666f72206e6f6e657869737460008201527f656e7420746f6b656e0000000000000000000000000000000000000000000000602082015250565b600061390f602983612d22565b915061391a826138b3565b604082019050919050565b6000602082019050818103600083015261393e81613902565b9050919050565b7f4552433732313a2062616c616e636520717565727920666f7220746865207a6560008201527f726f206164647265737300000000000000000000000000000000000000000000602082015250565b60006139a1602a83612d22565b91506139ac82613945565b604082019050919050565b600060208201905081810360008301526139d081613994565b9050919050565b7f45524337323155524953746f726167653a2055524920717565727920666f722060008201527f6e6f6e6578697374656e7420746f6b656e000000000000000000000000000000602082015250565b6000613a33603183612d22565b9150613a3e826139d7565b604082019050919050565b60006020820190508181036000830152613a6281613a26565b9050919050565b6000613a7482612d17565b613a7e81856136ba565b9350613a8e818560208601612d33565b80840191505092915050565b6000613aa68285613a69565b9150613ab28284613a69565b91508190509392505050565b7f496e73756666696369656e74204d617469632e00000000000000000000000000600082015250565b6000613af4601383612d22565b9150613aff82613abe565b602082019050919050565b60006020820190508181036000830152613b2381613ae7565b9050919050565b7f2e00000000000000000000000000000000000000000000000000000000000000600082015250565b6000613b606001836136ba565b9150613b6b82613b2a565b600182019050919050565b60008190508160005260206000209050919050565b60008154613b98816134d2565b613ba281866136ba565b94506001821660008114613bbd5760018114613bce57613c01565b60ff19831686528186019350613c01565b613bd785613b76565b60005b83811015613bf957815481890152600182019150602081019050613bda565b838801955050505b50505092915050565b6000613c178285876136c5565b9150613c2282613b53565b9150613c2e8284613b8b565b9150819050949350505050565b6000613c478286613b8b565b9150613c538285613a69565b9150613c5f8284613b8b565b9150819050949350505050565b7f7b226e616d65223a202200000000000000000000000000000000000000000000600082015250565b6000613ca2600a836136ba565b9150613cad82613c6c565b600a82019050919050565b7f222c20226465736372697074696f6e223a20224120646f6d61696e206f6e207460008201527f6865204c6561726e6572206e616d652073657276696365222c2022696d61676560208201527f223a2022646174613a696d6167652f7376672b786d6c3b6261736536342c0000604082015250565b6000613d3a605e836136ba565b9150613d4582613cb8565b605e82019050919050565b7f222c226c656e677468223a220000000000000000000000000000000000000000600082015250565b6000613d86600c836136ba565b9150613d9182613d50565b600c82019050919050565b7f227d000000000000000000000000000000000000000000000000000000000000600082015250565b6000613dd26002836136ba565b9150613ddd82613d9c565b600282019050919050565b6000613df382613c95565b9150613dff8286613a69565b9150613e0a82613d2d565b9150613e168285613a69565b9150613e2182613d79565b9150613e2d8284613a69565b9150613e3882613dc5565b9150819050949350505050565b7f646174613a6170706c69636174696f6e2f6a736f6e3b6261736536342c000000600082015250565b6000613e7b601d836136ba565b9150613e8682613e45565b601d82019050919050565b6000613e9c82613e6e565b9150613ea88284613a69565b915081905092915050565b7f4e487b7100000000000000000000000000000000000000000000000000000000600052603260045260246000fd5b7f4e487b7100000000000000000000000000000000000000000000000000000000600052601160045260246000fd5b6000613f1c82612dd2565b91507fffffffffffffffffffffffffffffffffffffffffffffffffffffffffffffffff821415613f4f57613f4e613ee2565b5b600182019050919050565b7f4552433732313a206f70657261746f7220717565727920666f72206e6f6e657860008201527f697374656e7420746f6b656e0000000000000000000000000000000000000000602082015250565b6000613fb6602c83612d22565b9150613fc182613f5a565b604082019050919050565b60006020820190508181036000830152613fe581613fa9565b9050919050565b7f4552433732313a207472616e736665722066726f6d20696e636f72726563742060008201527f6f776e6572000000000000000000000000000000000000000000000000000000602082015250565b6000614048602583612d22565b915061405382613fec565b604082019050919050565b600060208201905081810360008301526140778161403b565b9050919050565b7f4552433732313a207472616e7366657220746f20746865207a65726f2061646460008201527f7265737300000000000000000000000000000000000000000000000000000000602082015250565b60006140da602483612d22565b91506140e58261407e565b604082019050919050565b60006020820190508181036000830152614109816140cd565b9050919050565b600061411b82612dd2565b915061412683612dd2565b92508282101561413957614138613ee2565b5b828203905092915050565b600061414f82612dd2565b915061415a83612dd2565b9250827fffffffffffffffffffffffffffffffffffffffffffffffffffffffffffffffff0382111561418f5761418e613ee2565b5b828201905092915050565b7f4552433732313a20617070726f766520746f2063616c6c657200000000000000600082015250565b60006141d0601983612d22565b91506141db8261419a565b602082019050919050565b600060208201905081810360008301526141ff816141c3565b9050919050565b7f4552433732313a207472616e7366657220746f206e6f6e20455243373231526560008201527f63656976657220696d706c656d656e7465720000000000000000000000000000602082015250565b6000614262603283612d22565b915061426d82614206565b604082019050919050565b6000602082019050818103600083015261429181614255565b9050919050565b7f4552433732314d657461646174613a2055524920717565727920666f72206e6f60008201527f6e6578697374656e7420746f6b656e0000000000000000000000000000000000602082015250565b60006142f4602f83612d22565b91506142ff82614298565b604082019050919050565b60006020820190508181036000830152614323816142e7565b9050919050565b7f4e487b7100000000000000000000000000000000000000000000000000000000600052601260045260246000fd5b600061436482612dd2565b915061436f83612dd2565b92508261437f5761437e61432a565b5b828204905092915050565b600061439582612dd2565b91506143a083612dd2565b9250826143b0576143af61432a565b5b828206905092915050565b600060808201905081810360008301526143d58187612d77565b905081810360208301526143e98186612d77565b905081810360408301526143fd8185612d77565b905061440c606083018461302f565b95945050505050565b600061442082612dd2565b915061442b83612dd2565b9250817fffffffffffffffffffffffffffffffffffffffffffffffffffffffffffffffff048311821515161561446457614463613ee2565b5b828202905092915050565b600060408201905081810360008301526144898185612d77565b9050818103602083015261449d8184612d77565b90509392505050565b7f45524337323155524953746f726167653a2055524920736574206f66206e6f6e60008201527f6578697374656e7420746f6b656e000000000000000000000000000000000000602082015250565b6000614502602e83612d22565b915061450d826144a6565b604082019050919050565b60006020820190508181036000830152614531816144f5565b9050919050565b600060608201905081810360008301526145528186612d77565b9050614561602083018561302f565b81810360408301526145738184612d77565b9050949350505050565b600081519050919050565b600082825260208201905092915050565b60006145a48261457d565b6145ae8185614588565b93506145be818560208601612d33565b6145c781612d66565b840191505092915050565b60006080820190506145e76000830187612e67565b6145f46020830186612e67565b614601604083018561302f565b81810360608301526146138184614599565b905095945050505050565b60008151905061462d81612c88565b92915050565b60006020828403121561464957614648612c52565b5b60006146578482850161461e565b91505092915050565b7f4552433732313a206d696e7420746f20746865207a65726f2061646472657373600082015250565b6000614696602083612d22565b91506146a182614660565b602082019050919050565b600060208201905081810360008301526146c581614689565b9050919050565b7f4552433732313a20746f6b656e20616c7265616479206d696e74656400000000600082015250565b6000614702601c83612d22565b915061470d826146cc565b602082019050919050565b60006020820190508181036000830152614731816146f5565b905091905056fe0a2d2d2d2d2d2d2d2d2d2d2d2d2d2d2d2d2d2d2d2d2d2d2d2d2d2d2d2d2d2d2d2d2d2d2d2d2d2d2d2d2d2d2d2d2d2d2d2d2d2d2d2d2d2d2d2d5265676973746572696e672025732e2573206f6e2074686520636f6e7472616374207769746820746f6b656e49442025642d2d2d2d2d2d2d2d2d2d2d2d2d2d2d2d2d2d2d2d2d2d2d2d2d2d2d2d2d2d2d2d2d2d2d2d2d2d2d2d2d2d2d2d2d2d2d2d2d2d2d2d2d2d2d2d0a4142434445464748494a4b4c4d4e4f505152535455565758595a6162636465666768696a6b6c6d6e6f707172737475767778797a303132333435363738392b2fa2646970667358221220546e53ed66779a8fd5e35db8a2d90d9d679013756fb6d8314c9dee8f5b73b28a64736f6c634300080a00333c73766720786d6c6e733d22687474703a2f2f7777772e77332e6f72672f323030302f737667222077696474683d2232373022206865696768743d22323730222066696c6c3d226e6f6e65223e3c706174682066696c6c3d2275726c282342292220643d224d302030683237307632373048307a222f3e3c646566733e3c66696c7465722069643d22412220636f6c6f722d696e746572706f6c6174696f6e2d66696c746572733d2273524742222066696c746572556e6974733d227573657253706163654f6e55736522206865696768743d22323730222077696474683d22323730223e3c666544726f70536861646f772064783d2230222064793d22312220737464446576696174696f6e3d22322220666c6f6f642d6f7061636974793d222e323235222077696474683d223230302522206865696768743d2232303025222f3e3c2f66696c7465723e3c2f646566733e3c7061746820643d224d37322e3836332034322e393439632d2e3636382d2e3338372d312e3432362d2e35392d322e3139372d2e3539732d312e3532392e3230342d322e3139372e35396c2d31302e30383120362e3033322d362e383520332e3933342d31302e30383120362e303332632d2e3636382e3338372d312e3432362e35392d322e3139372e3539732d312e3532392d2e3230342d322e3139372d2e35396c2d382e3031332d342e37323161342e353220342e35322030203020312d312e3538392d312e363136632d2e3338342d2e3636352d2e3539342d312e3431382d2e3630382d322e313837762d392e3331632d2e3031332d2e3737352e3138352d312e3533382e3537322d322e32303861342e323520342e323520302030203120312e3632352d312e3539356c372e3838342d342e3539632e3636382d2e33383720312e3432362d2e353920322e3139372d2e353973312e3532392e32303420322e3139372e35396c372e38383420342e353961342e353220342e353220302030203120312e35383920312e363136632e3338342e3636352e35393420312e3431382e36303820322e31383776362e3033326c362e38352d342e303635762d362e303332632e3031332d2e3737352d2e3138352d312e3533382d2e3537322d322e32303861342e323520342e32352030203020302d312e3632352d312e3539354c34312e3435362032342e3539632d2e3636382d2e3338372d312e3432362d2e35392d322e3139372d2e3539732d312e3532392e3230342d322e3139372e35396c2d31342e38363420382e36353561342e323520342e32352030203020302d312e36323520312e353935632d2e3338372e36372d2e35383520312e3433342d2e35373220322e3230387631372e343431632d2e3031332e3737352e31383520312e3533382e35373220322e32303861342e323520342e323520302030203020312e36323520312e3539356c31342e38363420382e363535632e3636382e33383720312e3432362e353920322e3139372e353973312e3532392d2e32303420322e3139372d2e35396c31302e3038312d352e39303120362e38352d342e3036352031302e3038312d352e393031632e3636382d2e33383720312e3432362d2e353920322e3139372d2e353973312e3532392e32303420322e3139372e35396c372e38383420342e353961342e353220342e353220302030203120312e35383920312e363136632e3338342e3636352e35393420312e3431382e36303820322e31383776392e333131632e3031332e3737352d2e31383520312e3533382d2e35373220322e32303861342e323520342e32352030203020312d312e36323520312e3539356c2d372e38383420342e373231632d2e3636382e3338372d312e3432362e35392d322e3139372e3539732d312e3532392d2e3230342d322e3139372d2e35396c2d372e3838342d342e353961342e353220342e35322030203020312d312e3538392d312e363136632d2e3338352d2e3636352d2e3539342d312e3431382d2e3630382d322e313837762d362e3033326c2d362e383520342e30363576362e303332632d2e3031332e3737352e31383520312e3533382e35373220322e32303861342e323520342e323520302030203020312e36323520312e3539356c31342e38363420382e363535632e3636382e33383720312e3432362e353920322e3139372e353973312e3532392d2e32303420322e3139372d2e35396c31342e3836342d382e363535632e3635372d2e33393420312e3230342d2e393520312e3538392d312e363136732e3539342d312e3431382e3630392d322e3138375635352e353338632e3031332d2e3737352d2e3138352d312e3533382d2e3537322d322e32303861342e323520342e32352030203020302d312e3632352d312e3539356c2d31342e3939332d382e3738367a222066696c6c3d2223666666222f3e3c646566733e3c6c696e6561724772616469656e742069643d2242222078313d2230222079313d2230222078323d22323730222079323d2232373022206772616469656e74556e6974733d227573657253706163654f6e557365223e3c73746f702073746f702d636f6c6f723d2223636235656565222f3e3c73746f70206f66667365743d2231222073746f702d636f6c6f723d2223306364376534222073746f702d6f7061636974793d222e3939222f3e3c2f6c696e6561724772616469656e743e3c2f646566733e3c7465787420783d2233322e352220793d223233312220666f6e742d73697a653d223237222066696c6c3d2223666666222066696c7465723d2275726c282341292220666f6e742d66616d696c793d22506c7573204a616b617274612053616e732c44656a6156752053616e732c4e6f746f20436f6c6f7220456d6f6a692c4170706c6520436f6c6f7220456d6f6a692c73616e732d73657269662220666f6e742d7765696768743d22626f6c64223e",
  "linkReferences": {},
  "deployedLinkReferences": {}
}